:020000040800F2
:1000000000000A20FF1300081514000891030008DF
:100010001D140008251400082D14000835140008CC
:1000200000000000000000000000000015040008AF
:100030003D140008000000007F020008617C0008F9
:10004000090F0008130F00081D0F0008270F0008F4
:10005000310F00083B0F0008450F00084F0F000844
:10006000590F0008630F00086D0F0008770F000894
:10007000810F00088B0F0008950F00089F0F0008E4
:10008000A90F0008B30F0008BD0F0008C70F000834
:10009000D10F0008DB0F0008E50F0008EF0F000884
:1000A000F90F0008031000080D10000817100008D1
:1000B000211000082B100008351000083F10000820
:1000C00049100008531000085D1000086710000870
:1000D00000000000711000087B1000088510000867
:1000E0008F10000899100008A3100008AD10000838
:1000F000B7100008C1100008CB100008D510000888
:10010000DF100008E9100008F3100008FD100008D7
:1001100007110008111100081B1100082511000823
:100120002F11000839110008431100084D11000873
:1001300057110008611100086B11000875110008C3
:100140007F11000889110008931100089D11000813
:10015000A7110008B1110008BB110008C511000863
:10016000CF110008D9110008E3110008ED110008B3
:10017000F7110008011200080B1200081512000800
:100180001F12000829120008331200083D1200084F
:1001900047120008511200085B120008651200089F
:1001A0006F12000879120008831200088D120008EF
:1001B00097120008A1120008AB120008B51200083F
:1001C000BF120008C9120008D3120008DD1200088F
:1001D000E7120008F1120008FB12000805130008DE
:1001E0000F13000819130008231300082D1300082B
:1001F00037130008411300084B130008551300087B
:100200005F13000869130008731300080000000062
:10021000000000007D1300080000000087130008A4
:10022000911300089B130008A5130008AF130008E2
:10023000B9130008C3130008CD130008D713000832
:0C024000E1130008EB130008F5130008A0
:10025000EFF3108072B6704780F3108870475E4AE3
:100260001368012B04D04FF0010313605B4A106048
:100270005B4A11605B484FF0805101607047EFF3BB
:10028000108272B654480168002902D182F31088A6
:10029000704704B44FF0000101605048016859B341
:1002A00051490968A1B103B5084601F05FF9BDE8FD
:1002B0000340724612F0400F0AD0EFF30B83EFF3C6
:1002C0001484EFF3098525E91E000068056013E03A
:1002D000EFF309811EF0100F08BF21ED108B21E90B
:1002E000F00F414A12687346EFF30B84EFF3148565
:1002F00021E93C00006801603949096809683CC986
:1003000084F30B8885F314889E46374E326010467E
:1003100040B10AB401F02BF90ABC9E4613F0400F1D
:1003200000D006E0B1E8F00F1EF0100F08BFB1ECEE
:10033000108B81F3098804BC82F310887047284928
:100340000860EFF3148222F0040282F31488234938
:100350004FF00000086020494FF00100086023487A
:100360002349D0F8002041EA020101601D484FF006
:10037000805101601F480068006800BF80F3088852
:1003800061B662B6BFF34F8FBFF36F8F704700BF88
:10039000EFF308801EF0040F01D0EFF3098020E98D
:1003A000F00F114A12687346EFF30B84EFF31485D4
:1003B00020E93C0040F804ED1EF0040F02D080F369
:1003C000098801E080F3088800B501F0C1F85DF804
:1003D00004EB4EF0040E704730090020380900206D
:1003E0003409002004ED00E03C09002020ED00E08D
:1003F0000000FFFF08ED00E001DF704712B50C467A
:100400000FCC24E90F0001F0B3F8BDE812400860FA
:1004100070477047EFF308811EF0040F01D0EFF32F
:100420000981886910F8020C0028F2D00128E5D073
:10043000844641EA000313F0030349D1403A23D331
:100440000B6803604B6843608B688360CB68C36054
:100450000B6903614B6943618B698361CB69C3613C
:100460000B6A03624B6A43628B6A8362CB6AC36224
:100470000B6B03634B6B43638B6B8363CB6BC3630C
:1004800040304031403ADBD230320BD30B6803604E
:100490004B6843608B688360CB68C3601030103159
:1004A000103AF3D20C3205D351F8043B40F8043B28
:1004B000043AF9D2043208D0D2071CBF11F8013B2C
:1004C00000F8013B01D30B8803806046704700BFF2
:1004D000082A13D38B07B1D010F00303AED0C3F1B9
:1004E0000403D21ADB071CBF11F8013B00F8013BE3
:1004F000A4D331F8023B20F8023B9FE7043AD9D35A
:10050000013A11F8013B00F8013BF9D20B78037076
:100510004B7843708B7883706046704781F0004160
:1005200002E000BF83F0004330B54FEA41044FEAD8
:10053000430594EA050F08BF90EA020F1FBF54EA73
:10054000000C55EA020C7FEA645C7FEA655C00F00F
:10055000E2804FEA5454D4EB5555B8BF6D420CDDE0
:100560002C4480EA020281EA030382EA000083EA63
:10057000010180EA020281EA0303362D88BF30BD03
:1005800011F0004F4FEA01314FF4801C4CEA113159
:1005900002D0404261EB410113F0004F4FEA0333B8
:1005A0004CEA133302D0524263EB430394EA050F43
:1005B00000F0A780A4F10104D5F1200E0DDB02FAB2
:1005C0000EFC22FA05F2801841F1000103FA0EF246
:1005D000801843FA05F359410EE0A5F120050EF10C
:1005E000200E012A03FA0EFC28BF4CF0020C43FA3D
:1005F00005F3C01851EBE37101F0004507D54FF04A
:10060000000EDCF1000C7EEB00006EEB0101B1F599
:10061000801F1BD3B1F5001F0CD349085FEA3000DF
:100620004FEA3C0C04F101044FEA445212F5800FEA
:1006300080F09A80BCF1004F08BF5FEA500C50F187
:10064000000041EB045141EA050130BD5FEA4C0C6A
:10065000404141EB0101013C28BFB1F5801FE9D2C7
:1006600091F0000F04BF01460020B1FA81F308BFEA
:100670002033A3F10B03B3F120020CDA0C3208DDB6
:1006800002F1140CC2F10C0201FA0CF021FA02F191
:100690000CE002F11402D8BFC2F1200C01FA02F101
:1006A00020FA0CFCDCBF41EA0C019040E41AA2BF26
:1006B00001EB0451294330BD6FEA04041F3C1CDAEE
:1006C0000C340EDC04F11404C4F1200220FA04F00E
:1006D00001FA02F340EA030021FA04F345EA0301B8
:1006E00030BDC4F10C04C4F1200220FA02F001FA7A
:1006F00004F340EA0300294630BD21FA04F02946FC
:1007000030BD94F0000F83F4801306BF81F4801194
:100710000134013D4EE77FEA645C18BF7FEA655C07
:1007200029D094EA050F08BF90EA020F05D054EAD9
:10073000000C04BF1946104630BD91EA030F1EBFDE
:100740000021002030BD5FEA545C05D140004941E2
:1007500028BF41F0004130BD14F580043CBF01F5D5
:10076000801130BD01F0004545F0FE4141F47001BB
:100770004FF0000030BD7FEA645C1ABF1946104696
:100780007FEA655C1CBF0B46024650EA013406BF97
:1007900052EA033591EA030F41F4002130BD00BF56
:1007A00090F0000F04BF0021704730B54FF4806413
:1007B00004F132044FF000054FF0000150E700BF94
:1007C00090F0000F04BF0021704730B54FF48064F3
:1007D00004F1320410F0004548BF40424FF00001E0
:1007E0003EE700BF42004FEAE2014FEA31014FEA23
:1007F00002701FBF12F07F4393F07F4F81F0605172
:10080000704732F07F4208BF704793F07F4F04BFBC
:1008100041F40021704730B54FF4607401F0004599
:1008200021F000411CE700BF50EA010208BF7047F9
:1008300030B54FF000050AE050EA010208BF7047EA
:1008400030B511F0004502D5404261EB41014FF453
:10085000806404F132045FEA915C3FF4D8AE4FF05B
:1008600003025FEADC0C18BF03325FEADC0C18BF3E
:10087000033202EBDC02C2F1200300FA03FC20FA8F
:1008800002F001FA03FE40EA0E0021FA02F11444DC
:10089000BDE600BF70B54FF0FF0C4CF4E06C1CEAF5
:1008A00011541DBF1CEA135594EA0C0F95EA0C0F66
:1008B00000F0DEF82C4481EA030621EA4C5123EAD9
:1008C0004C5350EA013518BF52EA033541F4801108
:1008D00043F4801338D0A0FB02CE4FF00005E1FBBB
:1008E00002E506F00042E0FB03E54FF00006E1FB05
:1008F00003569CF0000F18BF4EF0010EA4F1FF0448
:10090000B6F5007F64F5407404D25FEA4E0E6D4187
:1009100046EB060642EAC62141EA55514FEAC52098
:1009200040EA5E504FEACE2EB4F1FD0C88BFBCF514
:10093000E06F1ED8BEF1004F08BF5FEA500E50F1C5
:10094000000041EB045170BD06F0004646EA01018B
:1009500040EA020081EA0301B4EB5C04C2BFD4EBBD
:100960000C0541EA045170BD41F480114FF0000EB6
:10097000013C00F3AB8014F1360FDEBF002001F024
:10098000004170BDC4F10004203C35DA0C341BDC9E
:1009900004F11404C4F1200500FA05F320FA04F070
:1009A00001FA05F240EA020001F0004221F00041A4
:1009B00010EBD37021FA04F642EB06015EEA430E17
:1009C00008BF20EAD37070BDC4F10C04C4F1200547
:1009D00000FA04F320FA05F001FA04F240EA0200FA
:1009E00001F0004110EBD37041F100015EEA430ECB
:1009F00008BF20EAD37070BDC4F1200500FA05F2EB
:100A00004EEA020E20FA04F301FA05F243EA020369
:100A100021FA04F001F0004121FA04F220EA020078
:100A200000EBD3705EEA430E08BF20EAD37070BDBE
:100A300094F0000F0FD101F00046400041EB01019E
:100A400011F4801F08BF013CF7D041EA060195F080
:100A5000000F18BF704703F00046520043EB03033A
:100A600013F4801F08BF013DF7D043EA0603704727
:100A700094EA0C0F0CEA135518BF95EA0C0F0CD032
:100A800050EA410618BF52EA4306D1D181EA030178
:100A900001F000414FF0000070BD50EA410606BF72
:100AA0001046194652EA430619D094EA0C0F02D1B7
:100AB00050EA013613D195EA0C0F05D152EA0336FC
:100AC0001CBF104619460AD181EA030101F000411A
:100AD00041F0FE4141F470014FF0000070BD41F063
:100AE000FE4141F4780170BD70B54FF0FF0C4CF43D
:100AF000E06C1CEA11541DBF1CEA135594EA0C0F5C
:100B000095EA0C0F00F0A7F8A4EB050481EA030EA8
:100B100052EA03354FEA013100F088804FEA03338F
:100B20004FF0805545EA131343EA12634FEA02225D
:100B300045EA111545EA10654FEA00260EF000411E
:100B40009D4208BF964244F1FD0404F5407402D270
:100B50005B084FEA3202B61A65EB03055B084FEA01
:100B600032024FF480104FF4002CB6EB020E75EBFE
:100B7000030E22BFB61A754640EA0C005B084FEA26
:100B80003202B6EB020E75EB030E22BFB61A7546A3
:100B900040EA5C005B084FEA3202B6EB020E75EBEE
:100BA000030E22BFB61A754640EA9C005B084FEA66
:100BB0003202B6EB020E75EB030E22BFB61A754673
:100BC00040EADC0055EA060E18D04FEA051545EA62
:100BD00016754FEA06164FEAC30343EA52734FEA0B
:100BE000C2025FEA1C1CC0D111F4801F0BD141EA84
:100BF00000014FF000004FF0004CB6E711F4801FE9
:100C000004BF01430020B4F1FD0C88BFBCF5E06FC8
:100C10003FF6AFAEB5EB030C04BFB6EB020C5FEAD8
:100C2000500C50F1000041EB045170BD0EF0004E2D
:100C30004EEA113114EB5C04C2BFD4EB0C0541EA5F
:100C4000045170BD41F480114FF0000E013C90E65C
:100C500045EA060E8DE60CEA135594EA0C0F08BF20
:100C600095EA0C0F3FF43BAF94EA0C0F0AD150EA1F
:100C700001347FF434AF95EA0C0F7FF425AF1046B2
:100C800019462CE795EA0C0F06D152EA03353FF4DA
:100C9000FDAE1046194622E750EA410618BF52EA57
:100CA00043067FF4C5AE50EA41047FF40DAF52EA2B
:100CB00043057FF4EBAE12E74FF0FF3C06E000BFC8
:100CC0004FF0010C02E000BF4FF0010C4DF804CDD5
:100CD0004FEA410C7FEA6C5C4FEA430C18BF7FEA95
:100CE0006C5C1BD001B050EA410C0CBF52EA430CC3
:100CF00091EA030F02BF90EA020F0020704710F143
:100D0000000F91EA030F58BF994208BF90422CBFD1
:100D1000D8176FEAE37040F0010070474FEA410CCA
:100D20007FEA6C5C02D150EA013C07D14FEA430CE8
:100D30007FEA6C5CD6D152EA033CD3D05DF8040B59
:100D4000704700BF8446104662468C46194663468B
:100D500000E000BF01B5FFF7B7FF002848BF10F162
:100D6000000F01BD4DF808EDFFF7F4FF0CBF0120A7
:100D700000205DF808FB00BF4DF808EDFFF7EAFF23
:100D800034BF012000205DF808FB00BF4DF808EDDE
:100D9000FFF7E0FF94BF012000205DF808FB00BFD3
:100DA0004DF808EDFFF7CEFF94BF012000205DF85D
:100DB00008FB00BF4DF808EDFFF7C4FF34BF01206A
:100DC00000205DF808FB00BF4FEA410C7FEA6C5C35
:100DD00002D150EA013C0AD14FEA430C7FEA6C5C35
:100DE00002D152EA033C02D14FF0000070474FF0AD
:100DF000010070474FEA410212F5001215D211D5D9
:100E00006FF47873B3EB625212D94FEAC12343F007
:100E1000004343EA505311F0004F23FA02F018BF89
:100E2000404270474FF00000704750EA013005D152
:100E300011F0004008BF6FF0004070474FF0000015
:100E4000704700BF53B94AB9002908BF00281CBF2A
:100E50004FF0FF314FF0FF3000F00CB8ADF1080C4F
:100E60006DE904CE0DF048FEDDF804E0DDE9022373
:100E700004B07047704700BF0348044B834202D060
:100E8000034B03B1184770471009002010090020D8
:100E900000000000064B0749C91A891048BF0131FC
:100EA000491003D0044B0BB101481847704700BFED
:100EB00010090020100900200000000010B5064CA9
:100EC000237843B9FFF7D8FF044B13B10448AFF3BD
:100ED00000800123237010BD1009002000000000D5
:100EE00044EE000808B5054B1BB105490548AFF3B2
:100EF0000080BDE80840FFF7CDBF00BF0000000044
:100F00001409002044EE000808B50F2006F0A4FEE6
:100F100008BD08B5102006F09FFE08BD08B51120D9
:100F200006F09AFE08BD08B5122006F095FE08BD31
:100F300008B5132006F090FE08BD08B5142006F091
:100F40008BFE08BD08B5152006F086FE08BD08B565
:100F5000162006F081FE08BD08B5172006F07CFEBD
:100F600008BD08B5182006F077FE08BD08B51920A1
:100F700006F072FE08BD08B51A2006F06DFE08BD29
:100F800008B51B2006F068FE08BD08B51C2006F059
:100F900063FE08BD08B51D2006F05EFE08BD08B55D
:100FA0001E2006F059FE08BD08B51F2006F054FEAD
:100FB00008BD08B5202006F04FFE08BD08B5212069
:100FC00006F04AFE08BD08B5222006F045FE08BD21
:100FD00008B5232006F040FE08BD08B5242006F021
:100FE0003BFE08BD08B5252006F036FE08BD08B555
:100FF000262006F031FE08BD08B5272006F02CFE9D
:1010000008BD08B5282006F027FE08BD08B5292030
:1010100006F022FE08BD08B52A2006F01DFE08BD18
:1010200008B52B2006F018FE08BD08B52C2006F0E8
:1010300013FE08BD08B52D2006F00EFE08BD08B54C
:101040002E2006F009FE08BD08B52F2006F004FE8C
:1010500008BD08B5302006F0FFFD08BD08B53120F9
:1010600006F0FAFD08BD08B5322006F0F5FD08BD12
:1010700008B5342006F0F0FD08BD08B5352006F0AF
:10108000EBFD08BD08B5362006F0E6FD08BD08B545
:10109000372006F0E1FD08BD08B5382006F0DCFD7C
:1010A00008BD08B5392006F0D7FD08BD08B53A20BF
:1010B00006F0D2FD08BD08B53B2006F0CDFD08BD09
:1010C00008B53C2006F0C8FD08BD08B53D2006F077
:1010D000C3FD08BD08B53E2006F0BEFD08BD08B53D
:1010E0003F2006F0B9FD08BD08B5402006F0B4FD6C
:1010F00008BD08B5412006F0AFFD08BD08B5422087
:1011000006F0AAFD08BD08B5432006F0A5FD08BD00
:1011100008B5442006F0A0FD08BD08B5452006F03E
:101120009BFD08BD08B5462006F096FD08BD08B534
:10113000472006F091FD08BD08B5482006F08CFD5B
:1011400008BD08B5492006F087FD08BD08B54A204E
:1011500006F082FD08BD08B54B2006F07DFD08BDF8
:1011600008B54C2006F078FD08BD08B54D2006F006
:1011700073FD08BD08B54E2006F06EFD08BD08B52C
:101180004F2006F069FD08BD08B5502006F064FD4B
:1011900008BD08B5512006F05FFD08BD08B5522016
:1011A00006F05AFD08BD08B5532006F055FD08BDF0
:1011B00008B5542006F050FD08BD08B5552006F0CE
:1011C0004BFD08BD08B5562006F046FD08BD08B524
:1011D000572006F041FD08BD08B5582006F03CFD3B
:1011E00008BD08B5592006F037FD08BD08B55A20DE
:1011F00006F032FD08BD08B55B2006F02DFD08BDE8
:1012000008B55C2006F028FD08BD08B55D2006F095
:1012100023FD08BD08B55E2006F01EFD08BD08B51B
:101220005F2006F019FD08BD08B5602006F014FD2A
:1012300008BD08B5612006F00FFD08BD08B56220A5
:1012400006F00AFD08BD08B5632006F005FD08BDDF
:1012500008B5642006F000FD08BD08B5652006F05D
:10126000FBFC08BD08B5662006F0F6FC08BD08B515
:10127000672006F0F1FC08BD08B5682006F0ECFC1C
:1012800008BD08B5692006F0E7FC08BD08B56A206E
:1012900006F0E2FC08BD08B56B2006F0DDFC08BDD9
:1012A00008B56C2006F0D8FC08BD08B56D2006F026
:1012B000D3FC08BD08B56E2006F0CEFC08BD08B50D
:1012C0006F2006F0C9FC08BD08B5702006F0C4FC0C
:1012D00008BD08B5712006F0BFFC08BD08B5722036
:1012E00006F0BAFC08BD08B5732006F0B5FC08BDD1
:1012F00008B5742006F0B0FC08BD08B5752006F0EE
:10130000ABFC08BD08B5762006F0A6FC08BD08B504
:10131000772006F0A1FC08BD08B5782006F09CFCFB
:1013200008BD08B5792006F097FC08BD08B57A20FD
:1013300006F092FC08BD08B57B2006F08DFC08BDC8
:1013400008B57C2006F088FC08BD08B57D2006F0B5
:1013500083FC08BD08B57E2006F07EFC08BD08B5FC
:101360007F2006F079FC08BD08B5802006F074FCEB
:1013700008BD08B5812006F06FFC08BD08B58420C3
:1013800006F06AFC08BD08B5862006F065FC08BDBD
:1013900008B5872006F060FC08BD08B5882006F077
:1013A0005BFC08BD08B5892006F056FC08BD08B5F1
:1013B0008A2006F051FC08BD08B58B2006F04CFCD5
:1013C00008BD08B58C2006F047FC08BD08B58D2087
:1013D00006F042FC08BD08B58E2006F03DFC08BDB5
:1013E00008B58F2006F038FC08BD08B5902006F03F
:1013F00033FC08BD08B5912006F02EFC08BD08B5E9
:1014000006F0A0FB06F0A2FB07F0FAF806F002FCDB
:10141000FEE7FEE708B5FFF7FCFF08BD08B5FFF7DC
:10142000F8FF08BD08B5FFF7F4FF08BD08B5FFF7E2
:10143000F0FF08BD08B5FFF7ECFF08BD08B5FFF7E2
:10144000E8FF08BD08B506F07DFB08BD10B42249D1
:10145000D1F8883043F47003C1F888301F4B012263
:101460001A600022DA611A621C681D482040186068
:101470009A62DA621A631B4858639A63D8631A64E3
:1014800058649A64186820F4802018601A654FF038
:1014900000638B60144B9B6903F06043B3F1604FB2
:1014A00002D0B3F1404F13D10F4BDB6913F0010FA2
:1014B00005D00D4B0D4ADA6002F14432DA600A4B76
:1014C000DA6942F00202DA61DA6942F00102DA61B5
:1014D0005DF8044B704700BF00ED00E0000C0244D3
:1014E000E3EAE2EA80020101002002403B2A1908F7
:1014F00030B40546043222F0070CACF15000002253
:1015000003E0124C40F822400132132AF9D94CF87A
:10151000201C00224CF81C2C4CF8182C4CF8142CD5
:101520004CF8102C4CF80C3C4CF8085C4FF08073D5
:101530004CF8043C4CF8502C6FF002034CF84C3C37
:101540004CF8482C4CF8442C30BC7047EFBEADDE54
:1015500008B5044B1B6813B13430984700B1FEE75F
:1015600008BD00BF2C09002000207047704770475D
:1015700008B541F20202904205D041F203029042C6
:1015800009D000200AE00846FFF7EEFF002805DD3D
:10159000034A106002E00020014B186008BD00BF44
:1015A0003C09002070B582B0044615460698079A9B
:1015B000099E04F11401A161616125626362A06268
:1015C000E262232100F0B2FCA16AE36A1A1F114B08
:1015D0000A44616A206AFFF78BFFE0619DF82030C2
:1015E00084F835300025A563E56384F840506664CF
:1015F000A664256384F83450A567E56701950095D6
:101600002346054A214604F14C0000F0DEF9284645
:1016100002B070BD951600081D16000838B50446C6
:10162000FEF716FE05466FF00103236304F1140371
:101630006169A2694A6061691160A36163612046C2
:1016400001F000F92846FEF707FE01F07DF938BDEC
:10165000F0B585B005460C4616461F460A460121E0
:1016600000F0E6FA0D9B03939DF8303002930B9B3C
:1016700001930A9B00933B46324621462846FFF7DA
:1016800091FF05B0F0BD0000014B1868704700BF26
:101690008009002038B5FFF7F7FF0446FEF7D8FDB4
:1016A0000546204601F016F904F14C0000F0A1F9BE
:1016B000042384F83430204601F0EAF92846FEF786
:1016C000CBFD01F041F938BD38B590F8343003F066
:1016D0000703042B11D004468BB9FEF7B9FD05466C
:1016E00004F14C0000F085F9042384F834302046DE
:1016F00001F0CEF92846FEF7AFFD002038BD01F01D
:10170000E9F8EAE72DE9F04385B004460F46904634
:101710001D460146012000F0C6FA064688B128465B
:1017200000F0EEFD814680B10D9B03939DF83030B3
:1017300002930195009043463A4621463046FFF712
:1017400031FF304605B0BDE8F083304600F0D1FAF5
:101750004E46F6E738B590F8343003F00703042B13
:1017600011D004468BB9FEF773FD054604F14C0019
:1017700000F03FF9042384F83430204601F088F962
:101780002846FEF769FD002038BD01F0A3F8EAE71E
:1017900038B5044690F8343003F00703012B01D02C
:1017A000032B16D1FEF754FD0546204601F092F8B2
:1017B00094F8343023F0070343F0020384F8343004
:1017C00004F14C0000F07AF92846FEF745FD0020B0
:1017D00038BD4FF0FF30FBE738B590F8343003F0F8
:1017E0000703022B18D10446FEF732FD054604F12B
:1017F00014036169A2694A6061691160A361636150
:1018000004F14C0000F05AF9204601F01BF828467C
:10181000FEF722FD002038BD4FF0FF30FBE708B592
:1018200090F8351001228A408263022280F8342029
:10183000FFF7D2FFFFF728FF08B101F085F800207D
:1018400008BD70B5044601292BD01546022902D0E7
:1018500019B3002412E0FEF7FBFC064694F834307E
:1018600003F00703012B0BD02A7884F835200123DD
:101870009340A3633046FEF7EFFC0024204670BD82
:10188000204601F027F82A7884F835200123934078
:10189000A363204600F0D6FFECE7FFF7C0FF044645
:1018A000ECE700F03BFA012806D02046FFF752FF94
:1018B000044601F049F8E1E72046FFF705FF04463A
:1018C000F7E7002070470020704700207047002095
:1018D0007047000010B5044C02E054F8043B9847F0
:1018E000024B9C42F9D310BD0CF4000810F4000820
:1018F00010B5044C02E054F8043B9847024B9C425C
:10190000F9D310BD10F4000814F4000808B5FFF76F
:10191000EFFF06F0D7F908BD00B583B0142301939B
:101920000A2300934FF48063002204490448FFF720
:10193000E9FEFFF774FF03B05DF804FB0D19000822
:1019400078EE000808B5FEF783FC01F031F900F0ED
:1019500035FB00F04DF900F05DFFFFF7DDFF00F013
:1019600053F901F0DBF800F0D9FF002008BD9DF825
:1019700000C080F809C02CF0010C80F809C0C161DA
:1019800002620022826243621346002B00DD704730
:101990009A1C00EBC202111D916051600133F4E703
:1019A0000022002A00DD704730B4931C00EBC30313
:1019B000191D9C685D686C605D6825609960596060
:1019C0000132002AF1DD30BC704770B582B00446A8
:1019D00015461E460A460A2100F02AF99DF81C30D9
:1019E0000093069B324629462046FFF7C0FF02B00F
:1019F00070BD38B50446FEF72BFC05462046FFF7C0
:101A0000CFFF637A23F0010363722846FEF724FCBC
:101A1000204600F036F9002038BD000070B582B0D5
:101A20000446FEF715FC05462046FFF7B9FF637A2A
:101A300023F00103637200F0A5FD636AC618A66275
:101A40001C4B01930022DAB11B4A13680133136067
:101A5000019B04F1140219684A60196861611A60F7
:101A6000A361637A43F0010363722846FEF7F4FB37
:101A7000002002B070BD02AB03EB820343F8041CEC
:101A800002AB03EB820353F8040CD300094901EBCA
:101A9000C201496888420AD001681433CB1A9B6A94
:101AA0009E42E8D09B1B6FF000408342E3D201329C
:101AB000C9E700BF440900204009002038B5437A37
:101AC00013F0010F0FD00446FEF7C2FB0546204677
:101AD000FFF766FF637A23F0010363722846FEF77F
:101AE000BBFB002038BD4FF0FF30FBE770B505466B
:101AF0000C461646FEF7ACFB052C06D8DFE804F0D2
:101B000009030C1116206B6A3360FEF7A5FB002059
:101B100070BD33686B62F8E76B7A23F002036B7277
:101B2000F3E76B7A43F002036B72EEE76B7A13F024
:101B3000010F02D001233360E7E700233360E4E7BD
:101B4000AB6A3360E1E700002DE9F04182B0CDF8E7
:101B500004D0CDF800D000F015FD0546FEF778FB67
:101B60008046224B1C689C423AD0A4F1140763695A
:101B7000EB1A6FF00042934232D23846FFF710FF63
:101B800014F80B3C13F0020F03D123F0010304F807
:101B90000B3C009B5C60236000946E46C4F804D04C
:101BA000A368E068984700F0EDFC0546009BB3424F
:101BB000D7D022686368536022681A60646024602A
:101BC00014F80B3C13F0020FCBD013F0010FC8D068
:101BD00023F0010304F80B3C3846FFF71FFFC0E772
:101BE0004046FEF739FB02B0BDE8F0814409002011
:101BF000002202B17047034B03EBC2035B601B6022
:101C00000132F6E744090020704700000023072B4B
:101C100009DC1A0105498A5C824201D00133F6E7EA
:101C200001EB031070470020704700BF0400002044
:101C30002DE9F04106460F4690460846FFF7E6FFBD
:101C4000054600F0FBFE6B6800E01B682C1D9C4203
:101C5000FBD100F0FFFE67F07F0737720822414694
:101C6000304600F095F9FEF7F3FA06F10C036A68C6
:101C700053606A68F2606B603461FEF7EDFABDE8AC
:101C8000F08110B5044600230372FEF7E1FA04F177
:101C90000C03E16822694A60E16811602361E36036
:101CA000FEF7DAFA10BDF8B507460E46FFF7AEFFAD
:101CB0000446C06800F024FB0546C0B1E26800217C
:101CC00000F034F92F7200236B7208223146284647
:101CD00000F05EF9FEF7BCFA221D05F10C03616805
:101CE0004B606168E96063602A61FEF7B5FA2846D7
:101CF000F8BD10B5044600230372FEF7A9FA04F1FB
:101D00000C03E16822694A60E16811602361E360C5
:101D1000FEF7A2FA204600F005FB10BD90F908304E
:101D2000002B01DB002070470120704708B5FEF74B
:101D30008FFA044A13780133DBB21370FEF78CFA82
:101D400008BD00BF4C09002008B5FEF781FA044A1F
:101D50001378013BDBB21370FEF77EFA08BD00BFBB
:101D60004C0900200146002008E000EB8000531CD5
:101D70000B60137803EB4003A3F130000A6813787B
:101D8000303B092BF1D970472DE9F04784B09946D3
:101D90000D9C0E9D15F0400F14D0DFF858A115F0E2
:101DA000100F12D025F00105202615F0020F16D0D5
:101DB000002A11DB15F0040F29D115F0080F28D1E6
:101DC00000270DE0DFF830A1E9E715F0010F01D0A1
:101DD0003026EAE72026E8E752422D2700E00027D8
:101DE000AABB30238DF800304FF0010CA44531DC44
:101DF00022460C9BA3EB020E15F0110F37D127B131
:101E0000BEF1000F01DD0EF1FF3E734626E02B27E9
:101E1000E6E72027E4E7364BA3FB023E4FEADE0E5F
:101E20000EEB8E08A2EB480872461AF808E00CF197
:101E300010036B4403F810EC0CF1010C002AD5D010
:101E4000B9F10A0FE7D002F00F081209EDE74FF0E1
:101E5000000CF3E76246CCE70130734603F1FF3E26
:101E6000002B04DD8842F7D220230370F4E72FB162
:101E7000884200D207700EF1FF3E013015F0100FBE
:101E800003D073460CE001309E460EF1FF33BEF1E5
:101E9000000F05DD8842F6D20670F4E70130724685
:101EA00002F1FF3E624506DD8842F7D23022027021
:101EB000F4E7013094460CF1FF32BCF1000F0BDD6A
:101EC00054B18842F5D202F110056D4415F8105C4A
:101ED0000570EEE7013013465A1E002B04DD8842E0
:101EE000F8D220230370F5E704B0BDE8F08700BF07
:101EF000CDCCCCCC80F000086CF0000808B5FFF722
:101F0000C3FB28B14FF0FF31024800F0AAFB08BD27
:101F10000020FCE75409002008B5FFF7B5FB10B11D
:101F2000014800F008FC08BD54090020032A23D909
:101F300010B4CCB210F0030F20D144EA042444EAD8
:101F40000444034605E01C605C609C60DC60103A61
:101F500010330F2AF7D802E043F8044B043A032A5F
:101F6000FAD802E003F8011B624602F1FF3C002AA6
:101F7000F8D15DF8044B7047034604E00346F4E7EC
:101F800003F8011B624602F1FF3C002AF8D17047BA
:101F90009AB110B5944603468E460C7801311C70F8
:101FA000013334B1BCF1010CF6D105E0002203F895
:101FB000012BBCF1010CF9D110BD70477047000036
:101FC0002DE9F04387B007468846059204934618EA
:101FD00003D36FEA00084FF0FF363D4603E00135BA
:101FE000059B01330593059B1B78002B00F048816E
:101FF000252B03D0B542F2D22B70F0E7002401E08C
:1020000044F01004059A531C059353782D2BF7D0F8
:102010002B2B08D0202B09D0232B0AD0302B0BD10F
:1020200044F00104EEE744F00404EBE744F0080454
:10203000E8E744F02004E5E7A3F13001092911D9CC
:102040002A2B14D04FF0FF39059B1A782E2A1DD069
:102050004FF0FF30059B1A78682A30D06C2A2ED0BA
:1020600000222EE005A8FFF77DFE8146ECE7023254
:102070000592049B1A1D0492D3F80090B9F1000F49
:10208000E2DAC9F1000944F01004DDE75A1C0592B8
:102090005A78A2F13001092903D92A2A08D0002050
:1020A000D8E705A8FFF75EFE0028D3DA0020D1E7C5
:1020B00002330593049B1A1D04921868F4E7013358
:1020C0000593059B1B78252B00F09580C0F0B4800C
:1020D000782B00F2B180582BC0F0AE80583B202BFB
:1020E00000F2AA80DFE803F08FA8A8A8A8A8A8A8F3
:1020F000A8A8A81193A8A8A8A893A8A8A8A8A88D3C
:1021000070A8A834A8B9A8A8BB0014F0100F09D073
:10211000049B1A1D04921B78B54200D22B70013526
:102120000BE0013509F1FF39B9F1000FF0DDB542DF
:10213000F7D220232B70F4E7013509F1FF39B9F10B
:10214000000F7FF74DAFB542F6D220232B70F3E797
:10215000049B1A1D04921A680AB1002302E04F4A38
:10216000FBE701334B4502D0D15C0029F9D10028AF
:1021700002DD834200DD034614F0100F03D000217E
:102180000FE00135894609F1FF314B4504DAB542CC
:10219000F7D220202870F4E78946F0E701350132B4
:1021A0000131994206DAB542F8D210782870F5E785
:1021B0000135914609F1FF324B45BFF611AFB542EB
:1021C000F6D220212970F3E7B9F1FF3F0ED0049B2E
:1021D0001A1D04921A6802940190CDF80090102301
:1021E00031462846FFF7D0FD0546F9E644F00104E4
:1021F0004FF00809EBE7B54201D225232B700135DA
:10220000EEE6082306E044F04004102302E044F028
:1022100002040A236C2A24D0682A27D0049A111DAC
:102220000491126802940190CDF80090314628463E
:10223000FFF7AAFD0546D3E6B54201D225232B7050
:10224000691C059B1A7822B1B14200D26A7002352E
:10225000C6E6013B05930D46C2E60A23DAE71023E2
:10226000D8E7049A111D04911268DBE7049A111D46
:10227000049111688AB214F0020FD3D00AB2D1E7E8
:10228000B8F1000F02D0B54204D22B70E81B07B0A2
:10229000BDE8F083002306F8013CF7E780EE000874
:1022A00008B513460A464FF0FF31FFF789FE08BD17
:1022B0000EB400B582B003AA52F8041B0192FFF7D6
:1022C000EFFF02B05DF804EB03B0704710B5C31C1C
:1022D00023F0030321F00302064CD21A01462046E4
:1022E00000F086F8044B186001222146034800F0F4
:1022F000A5F910BD88EE00085009002054090020FF
:1023000038B50446FFF7FAFD05462146044B186828
:1023100000F0B0F804462846FFF7FEFD204638BD21
:102320005009002058B138B50546FFF7E7FD0446CF
:10233000284600F00BF92046FFF7EEFD38BD704748
:10234000E8B110F0FF020AD110F47F4F0BD110F466
:102350007F0F0ED1030E0A4AD05C19307047084B2C
:10236000985C01307047C0F30723054AD05C093000
:102370007047C0F30743024AD05C11307047704782
:1023800094F0000810B4826A4B6802EB030C6145BC
:1023900012D0D45814F0010F0ED1C46A64450BD08A
:1023A000046B64451FD00024D450DCF804304B602B
:1023B000826A13448A1A9A60846A8A68A3189942C6
:1023C0000ED0A25812F0010F0AD1026B8A420CD033
:1023D00000220A604A685A60816A0A445B1A936064
:1023E0005DF8044B70470163DDE70363F0E700002D
:1023F000F8B5CC1C114421F00301182934D9064644
:1024000024F0030404F138031F46A1F118029A4294
:102410002CD3C91AA1F11805382200212046FFF754
:1024200085FD32460C212046FFF702FC104B63610C
:10243000A761E5616563A7623C60636B0C337B60F9
:102440000022BA60A26AD118E16244F00101D150C1
:10245000636BE26A0C335360636BE26A0C33936024
:10246000A36A23632046F8BD0020FCE70020FAE7BA
:1024700090EE0008002965D030B50B46033323F0F9
:10248000030EBEF10B0F01D84FF00C0E416B7145DE
:102490005AD3026B856A531B17E0026AE41A22447E
:1024A0000262436A9A4241D942623FE0826A5B68B3
:1024B0001A440263036B1A6812F0010F3DD0C26A1E
:1024C0009342F3D139E0DCF80430A1EB0E029A42DA
:1024D00036D305EB030CEA5812F0010FF3D1DCF808
:1024E0000440E21A0C3A7245EDD30EF118018A420B
:1024F000D3D30EEB03020C32A91820F00104AC5028
:10250000DCF804404C608B60CCF804204968436BD5
:102510000C33994202D0836A0B449A60036A734475
:102520000C330362426A934200D9436240F00103D4
:10253000CCF80030036B6345BCD00CF10C0000E01C
:10254000002030BD002070470020FAE7C0B108B578
:102550000246A0F10C0150F80C0C20F0010042F8EA
:102560000C0C036B8B4200D90163836ACB1A52F8BF
:10257000082C9B1A026A13440362FFF703FF08BD8D
:1025800070470000014B1868704700BF78090020B1
:1025900010B5FDF75DFE04460E4A13680133136063
:1025A000FFF772F8836C013B83647BB9436C8364EF
:1025B00090F8343043F0080380F834302046FDF7BB
:1025C0004BFE00F0C1F9FFF7BFFA10BD2046FDF742
:1025D00043FEF8E77809002070B506460C4615461C
:1025E0000846FFF7D5F865B1012D12D13368B34223
:1025F00019D094F8351093F8212091420BD31B6821
:10260000F5E704F11403726813607268A2617360E5
:102610006661002070BD04F1140259680A605968AF
:10262000A1615A606361B342F3D104F1140372688B
:1026300013607268A26173606661EAE710B50446D0
:102640000A460321FFF7F4FA04F11403A36163615E
:102650000123A38300202062FF22A277E077637228
:1026600010BD70B582B004460191FFF70DF8054624
:10267000FDF7EEFD064600232B63206AA84212D028
:10268000A38B13B3013BA383256295F83530A37761
:10269000E37FFF2B13D00133E3773046FDF7DCFDFA
:1026A000002002B070BDE37FFF2B02D00133E3773F
:1026B000F3E73046FDF7D0FD6FF00200F1E730465A
:1026C000FDF7CAFD6FF00200EBE7019BD3B195F86F
:1026D000352090F835309A421CD3627A294604F1AD
:1026E0001400FFF779FF019B002B19DC3046FDF742
:1026F000B3FD00F029F9286B0028D2D1FDF7A8FD21
:102700000646CAE76FF001042C633046FDF7A4FDCE
:102710002046C6E705F135020221FFF792F8DCE713
:1027200005F14C0401AA00212046FFF7DFF92046FD
:10273000FFF774F9DAE770B50446FEF7A5FF054622
:10274000FDF786FD0646206AA84224D1E37F013BBF
:10275000DBB2E377002B44D1A27F90F835309A4268
:1027600020D104F114036269934227D0A2F114002E
:10277000206292F82130A377E37FFF2B18D001333A
:10278000E377FFF729F801243046FDF765FD012CBA
:1027900029D0204670BD4FF0FF342C633046FDF742
:1027A0005BFDF6E704F11E020221FFF74AF8D8E7C5
:1027B0003046FDF751FD6FF00204EAE7A38B4FF6B8
:1027C000FF72934207D00133A38300232362FF22C9
:1027D000A2771C46D8E73046FDF73EFD6FF00204B5
:1027E000D7E70024D0E700F0AFF80024D1E70000DD
:1027F00010B50446054B1868FFF7A2FD431E044AB6
:1028000052F833002360143810BD00BF880900203F
:102810008C0900200023084A138006E0074901EBD9
:10282000C302526041F8332001331F2BF6DD044B05
:1028300000221A60704700BF840900208C09002024
:102840008809002070B50446FDF702FD1E4B1B6889
:10285000A3421FD094F8342022F0070343F0010371
:1028600084F8343012F0080F1DD094F83520174B3F
:1028700003EBC20304F1140259680A605968A161AC
:102880005A606361A16B124A13680B431360FDF732
:10289000E3FC70BD94F8343023F0070343F00303E6
:1028A00084F83430F3E794F83520084B03EBC20585
:1028B00004F1140153F83260716053F832606661BC
:1028C00043F83210A561DDE7800900208C09002063
:1028D0008809002010B50446FDF7BAFC04F1140382
:1028E0006169A2694A6061691160A361636194F8DA
:1028F0003520084B03EBC20153F83230994202D025
:10290000FDF7AAFC10BDA16B034A136823EA01037B
:102910001360F5E78C0900208809002010B582B00B
:1029200001A8FFF765FF0446064B1860FFF7D2FFCA
:10293000032384F8343004F11C00FDF700FD02B0DD
:1029400010BD00BF8009002070B582B0FDF780FC8B
:102950000446354BB3F9003013B9344B1B6823B927
:102960002046FDF779FC02B070BD01A8FFF740FFDB
:1029700005462F4B1E6896F8343003F00702032AF1
:102980001ED00022AE4240D09DF80410294B197091
:10299000274B1D605ABB2846FFF79CFF95F8343043
:1029A00023F0070343F0030385F83430224B1B78F0
:1029B0000BB305F11C0106F11C00FDF750FCCFE73D
:1029C00096F83510019A914207D301D0012206E012
:1029D00013F0080F08D0012201E03546002223F051
:1029E000080386F83430CDE735460022F7E7304655
:1029F000FFF728FFCFE705F11C0106F11C00FDF7EA
:102A00002EFC2046FDF728FCADE73046FFF762FFBD
:102A1000074B1A6892F8343023F0070343F003039E
:102A200082F834309CE700BF840900208809002028
:102A3000800900207C0900204C09002008B5FDF722
:102A400007FC034A138801331380FDF705FC08BD1A
:102A50008409002008B5FDF7FBFB0B4A1388013BF6
:102A60001BB21380002B02DDFDF7F6FB08BD1346F9
:102A700000221A80FDF7F0FB044B1B68002BF5D0F9
:102A8000FFF762FFF2E700BF840900208009002001
:102A900000F11402034B19684A6041611A608361B6
:102AA000704700BF8400002038B50A4B1C689C4268
:102AB0000ED02546FDF7CCFB55F81429636853600A
:102AC00022681A6064602460FDF7C6FB284638BDA2
:102AD0000025FBE78400002070B504E02846FFF7DE
:102AE000D0F80AE074B1FFF7DFFF90B10546866FBA
:102AF000FFF714F904460128F0D0002EF2D0284642
:102B0000B047EFE7A86AFFF70DFC2846FFF7F1F89A
:102B1000E9E770BD08B5FFF7DFFFFCE770B586B0E9
:102B200000240CB106B070BD04AE22460E493046FA
:102B3000FFF7BEFB0D4D05EBC4150D4B03EB042356
:102B4000202203921F2202924FF48072019200937E
:102B50000023084A31462846FEF77AFD2846FEF74C
:102B60005EFE0134DDE700BF98EE00088C0B00200C
:102B70008C0A0020152B000800487047100C00201C
:102B8000004870471048002008B5FFF7CFF8FFF75E
:102B9000FFFCFFF7D9F808BD044B1B6803B1704771
:102BA0000028FCD0014B1860F9E700BF0C0C002096
:102BB00010B5084B1B6803B19847FEF78BFEFFF773
:102BC000DBFF0446FFF7DCFF01462046FFF77EFBF4
:102BD00010BD00BF0C0C00207047000038B5274B1B
:102BE0001A78002A47D005464FF0E0231C6914F0FC
:102BF00004040DD0224B1C684FF47A71B1FBF2F241
:102C0000B4FBF2F4204604F053FA50B3012033E051
:102C100004F09CFA01280ED0022817D00028F1D128
:102C2000174B1C68154A11784FF4FA52B2FBF1F2B7
:102C3000B4FBF2F4E6E7114B1B784FF47A72B2FB67
:102C4000F3F24FF4FA43B3FBF2F4DBE70B4B1B78E0
:102C50004FF47A72B2FBF3F24FF40043B3FBF2F499
:102C6000D0E7002229464FF0FF3004F011FA054B5F
:102C70001D60002000E0012038BD00BF8C00002056
:102C8000000000209000002010B5032004F0EEF9B1
:102C900000F030F80B4B1B6A03F00F030A4AD35CB9
:102CA000D8400A4B1860042004F012FA0F20FFF7F6
:102CB00095FF10B10124204610BD0446FFF78CFF9C
:102CC000F9E700BF000C024468EE00080000002095
:102CD000034B1B78034A11680B441360704700BF15
:102CE0008C00002010480020014B1868704700BF7E
:102CF000104800206D4BDB6903F01803082B00F02F
:102D0000CE806A4BDB6913F0180F0CD1674B1B6840
:102D100013F0200F00F0C580644B1B68C3F3C103A0
:102D20006348D8407047614BDB6903F01803102BF0
:102D300000F0B9805D4BDB6903F01803182B01D05C
:102D40005B48704710B4594B996A01F003019C6AC3
:102D5000C4F305209A6AC2F300129B6BC3F3CC0341
:102D600002FB03F307EE903AF8EE677A14F47C5F07
:102D700000F0928001291ED0032962D007EE100ACC
:102D8000F8EE476A9FED4B6A86EE267A474B5B6BFF
:102D9000C3F3080306EE903AF8EE666A9FED466AC2
:102DA00067EE867A76EEA77AF7EE006A77EEA67A75
:102DB00027EE277A61E03D4B1B6813F0200F23D0EC
:102DC0003A490A68C2F3C102394BD34007EE103AC0
:102DD000F8EE476A07EE100AB8EE476A86EE867A82
:102DE0004B6BC3F3080306EE903AF8EE666A9FED6C
:102DF000326A67EE867A76EEA77AF7EE006A77EEA9
:102E0000A67A27EE277A38E007EE100AF8EE476A2E
:102E10009FED2A6A86EE267A244B5B6BC3F3080388
:102E200006EE903AF8EE666A9FED236A67EE867AC0
:102E300076EEA77AF7EE006A77EEA67A27EE277A83
:102E40001BE007EE100AF8EE476A9FED1D6A86EE5A
:102E5000267A164B5B6BC3F3080306EE903AF8EE46
:102E6000666A9FED156A67EE867A76EEA77AF7EEC8
:102E7000006A77EEA67A27EE277A0C4B5B6BC3F3DA
:102E80004623013307EE903AF8EE677AC7EE276AD9
:102E9000FCEEE67A17EE900A5DF8044B704709489D
:102EA0007047034870470848704700BF000C024451
:102EB0000090D0030024744A000000390024744CB0
:102EC00020BCBE4B00093D0040787D01002800F089
:102ED000378170B50D4604469D4B1B6803F00F0308
:102EE0008B420BD29A4A136823F00F030B431360F3
:102EF000136803F00F038B4240F02481236813F022
:102F0000100F0ED06269934B1B6A1B0A03F070030B
:102F10009A4206D98F490B6A23F4E04343EA02231D
:102F20000B62236813F0080F0ED02269894B1B6ACD
:102F30001B0903F070039A4206D986490B6A23F4F1
:102F4000E06343EA02130B62236813F0040F0CD012
:102F5000E268804B1B6A03F070039A4205D97D49F1
:102F60000B6A23F070031A430A62236813F0020FFE
:102F70000CD0A268774B1B6A03F00F039A4205D965
:102F800074490B6A23F00F031A430A62236813F093
:102F9000010F6CD06368032B0AD0022B2CD0012BBD
:102FA00031D06C4A126812F0020F07D10120C6E03E
:102FB000684A126812F0007F00F0C6806549CA694D
:102FC00022F003021343CB61FFF78EFE06466368CF
:102FD000032B1FD0022B2CD0012B39D05D4BDB698A
:102FE00013F0180F43D0FFF77FFE801B41F28833A8
:102FF0009842F3D90320A2E0564A126812F4003F27
:10300000DCD101209BE0534A126812F4007FD5D135
:10301000012094E04F4BDB6903F01803182B26D0F6
:10302000FFF762FE831B41F288329342F2D90320FC
:1030300085E0484BDB6903F01803102B17D0FFF72E
:1030400053FE801B41F288339842F2D9032076E088
:10305000404BDB6903F01803082B08D0FFF744FE50
:10306000801B41F288339842F2D9032067E023683D
:1030700013F0020F0CD0A268364B1B6A03F00F034B
:103080009A4205D233490B6A23F00F031A430A62AE
:103090002F4B1B6803F00F03AB420AD92C4A13686D
:1030A00023F00F032B431360136803F00F03AB42AD
:1030B0004CD1236813F0040F0CD0E268254B1B6A37
:1030C00003F070039A4205D222490B6A23F0700381
:1030D0001A430A62236813F0080F0ED022691D4BB1
:1030E0001B6A1B0903F070039A4206D219490B6A46
:1030F00023F4E06343EA02130B62236813F0100F1A
:103100000ED06269134B1B6A1B0A03F070039A42CC
:1031100006D210490B6A23F4E04343EA02230B6210
:10312000FFF7E8FD0B4B1B6A03F00F030A4AD35C61
:10313000D8400A4B18600A4B1868FFF74FFD70BD66
:10314000012070470120FAE70120F8E70120F6E7A7
:1031500000200240000C024468EE0008000000203D
:103160009000002008B5FFF7C5FD064B1B6A03F071
:103170000F03054AD35C03F01F03D840034B1860CC
:1031800008BD00BF000C024468EE000800000020EB
:10319000002800F02883F8B50446A24BDD6905F04D
:1031A00018059E6A06F00306036813F0100F28D076
:1031B000082D1AD0182D16D0E369002B46D0994A55
:1031C000136843F480731360FFF78EFD0746954B39
:1031D0001B6813F4007F30D1FFF786FDC01B022867
:1031E000F5D9032008E3022EE6D1E369002B00F0B5
:1031F000FC828C4A936923F47C13216A43EA0143DD
:103200009361236813F0010F3AD0102D34D0182D9C
:1032100030D06368B3F5803F5AD0002B6FD1814B1B
:103220001A6822F480321A601A6822F480121A6036
:103230001A6822F480221A604FE07A4A936923F4D4
:103240007C13216A43EA01439361DAE7754A136804
:1032500023F480731360FFF747FD0746714B1B682B
:1032600013F4007FCDD0FFF73FFDC01B0228F5D936
:103270000320C1E2032ECCD16368002B00F0B7829B
:10328000236813F0020F00F0AE80002D78D0182DC7
:1032900074D0E368002B00F0D280624A136823F0F8
:1032A000180321690B431360136843F00103136093
:1032B000FFF71AFD06465B4B1B6813F0020F40F048
:1032C000B580FFF711FD801B0228F4D9032093E29B
:1032D000544A136843F4803313606368002B3ED074
:1032E000FFF702FD07464F4B1B6813F4003FC7D1A1
:1032F000FFF7FAFCC01B6428F5D903207CE2B3F584
:10330000A02F10D0B3F5A81F1BD0464B1A6822F48B
:1033100080321A601A6822F480221A601A6822F435
:1033200080121A60D9E73F4B1A6842F480221A6073
:103330001A6822F480121A601A6842F480321A6005
:10334000CBE7384B1A6842F480221A601A6842F4BC
:1033500080121A601A6842F480321A60BDE7FFF7E3
:10336000C3FC07462F4B1B6813F4003F88D0FFF7C0
:10337000BBFCC01B6428F5D903203DE2012E88D197
:10338000E368002B00F0358235B9264B1B6803F04B
:103390001803226993420ED1FFF7A6FC0646214B83
:1033A0001B6813F0020F16D1FFF79EFC801B02284A
:1033B000F5D9032020E21B490B6823F018031A43B8
:1033C0000A60FFF7CFFE184B1868FFF707FC0028CC
:1033D000E2D0012010E2134A136923F4FE0361696D
:1033E00043EA01431361236813F0080F52D0A36925
:1033F000002B38D00B4AD2F8F03043F08063C2F88B
:10340000F030FFF771FC0646064BD3F8F03013F0AE
:10341000006F3FD1FFF768FC801B0228F4D903201E
:10342000EAE100BF000C0244900000209B4A1369AF
:1034300023F4FE03616943EA01431361D3E7974A2A
:10344000136823F001031360FFF74EFC0646934B0D
:103450001B6813F0020FC6D0FFF746FC801B022842
:10346000F5D90320C8E18D4AD2F8F03023F080630B
:10347000C2F8F030FFF738FC0646884BD3F8F0303E
:1034800013F0006F06D0FFF72FFC801B0228F4D941
:103490000320B1E1236813F0040F00F0A080804BFB
:1034A0005B6A13F0010F18D0A368012B29D0002B01
:1034B00043D17A4BD3F8F02022F00102C3F8F02078
:1034C000D3F8F02022F08002C3F8F020D3F8F020E7
:1034D00022F00402C3F8F0201AE0714A536A43F064
:1034E00001035362FFF700FC06466D4B5B6A13F065
:1034F000010FD9D1FFF7F8FB801B0228F5D9032073
:103500007AE1664AD2F8F03043F00103C2F8F030B5
:10351000A368002B51D0FFF7E7FB06465F4BD3F8BB
:10352000F03013F0020F5AD1FFF7DEFB801B41F29F
:1035300088339842F2D903205EE1052B15D0852B04
:1035400027D0564BD3F8F02022F00102C3F8F02028
:10355000D3F8F02022F00402C3F8F020D3F8F020D2
:1035600022F08002C3F8F020D2E74C4BD3F8F020D1
:1035700042F00402C3F8F020D3F8F02022F08002D9
:10358000C3F8F020D3F8F02042F00102C3F8F02095
:10359000BEE7424BD3F8F02042F00402C3F8F0201B
:1035A000D3F8F02042F08002C3F8F020D3F8F020E6
:1035B00042F00102C3F8F020AAE7FFF795FB0646A8
:1035C000364BD3F8F03013F0020F08D0FFF78CFB26
:1035D000801B41F288339842F2D903200CE1236822
:1035E00013F0200F29D0636A9BB12C4A136843F46F
:1035F00080531360FFF778FB0646284B1B6813F4D3
:10360000005F1AD1FFF770FB801B0228F5D9032059
:10361000F2E0224A136823F480531360FFF764FB3F
:1036200006461E4B1B6813F4005F06D0FFF75CFBD9
:10363000801B0228F5D90320DEE0A36A002B00F0EE
:10364000DA80182D00F08980022B13D0134A1368FA
:1036500023F080731360FFF747FB04460F4B1B6892
:1036600013F0007F70D0FFF73FFB001B0228F5D955
:103670000320C1E0094A136823F080731360FFF749
:1036800033FB0546054B1B6813F0007F0AD0FFF79C
:103690002BFB401B0228F5D90320ADE0000C0244AF
:1036A000000802445C4B9A6A22F47C5222F0030226
:1036B000E16A206B41EA00210A439A62626B013A97
:1036C000C2F30802A16B0139490289B20A43E16BD6
:1036D0000139090401F4FE010A43216C013909068C
:1036E00001F0FE410A435A639A6A22F010029A627C
:1036F000E26CD2009A639A6A42F010029A629A6A65
:1037000022F00C02616C0A439A629A6A22F020024B
:10371000A16C0A439A629A6A42F480329A621A68E9
:1037200042F080721A60FFF7DFFA04463A4B1B68DA
:1037300013F0007F06D1FFF7D7FA001B0228F5D956
:10374000032059E0002057E0334A936A23F4E02332
:1037500023F00303936200204EE02F4A916A506BDE
:10376000012B4AD001F00303E26A934247D1C1F32F
:103770000521236B994244D1C0F30802636B013BDE
:103780009A4240D1C0F34622A36B013B9A423CD1FE
:10379000C0F30642E36B013B9A4238D1C0F30660A6
:1037A000236C013B984234D11B4B9B6BC3F3CC037E
:1037B000E26C934201D100201EE0174A936A23F085
:1037C00010039362FFF790FA0546FFF78DFAA842BF
:1037D000FBD0E26CD200104B9A639A6A42F010025E
:1037E0009A62002008E001207047012004E00120D7
:1037F00002E0012000E00020F8BD0120FCE70120EC
:10380000FAE70120F8E70120F6E70120F4E70120BC
:10381000F2E70120F0E700BF000C024408B5FFF713
:10382000A1FC054B1B6AC3F30213044AD35C03F0EB
:103830001F03D84008BD00BF000C024460EE000822
:1038400008B5FFF78FFC054B1B6AC3F30223044A3C
:10385000D35C03F01F03D84008BD00BF000C024436
:1038600060EE000808B5FFF77DFC054B1B6AC3F34B
:103870000233044AD35C03F01F03D84008BD00BFE5
:10388000000C024460EE000838B50546344A13685F
:1038900023F080631360FFF727FA0446304B1B6860
:1038A00013F0006F06D0FFF71FFA001B0228F5D9AE
:1038B000032038BD2A4BDA6A22F47C5222F003023C
:1038C0002968686841EA00210A43DA62AA68013A75
:1038D000C2F30802E9680139490289B20A43296939
:1038E0000139090401F4FE010A4369690139090635
:1038F00001F0FE410A43DA63DA6A22F00C02A96998
:103900000A43DA62DA6A22F02002E9690A43DA62DB
:10391000DA6A696A0A43DA62DA6A22F01002DA6263
:103920001A6C6FF3CF02296A42EAC1021A64DA6A9A
:1039300042F01002DA621A6842F080621A60FFF701
:10394000D3F90446064B1B6813F0006F06D1FFF74E
:10395000CBF9001B0228F5D90320AAE70020A8E72D
:10396000000C024438B50546344A136823F08053EE
:103970001360FFF7B9F90446304B1B6813F0005F82
:1039800006D0FFF7B1F9001B0228F5D9032038BD96
:103990002A4B1A6B22F47C5222F0030229686868D1
:1039A00041EA00210A431A63AA68013AC2F30802F5
:1039B000E9680139490289B20A43296901390904D0
:1039C00001F4FE010A4369690139090601F0FE416B
:1039D0000A435A641A6B22F00C02A9690A431A635B
:1039E0001A6B22F02002E9690A431A631A6B696AAA
:1039F0000A431A631A6B22F010021A639A6C6FF36F
:103A0000CF02296A42EAC1029A641A6B42F010029C
:103A10001A631A6842F080521A60FFF765F904468B
:103A2000064B1B6813F0005F06D1FFF75DF9001B22
:103A30000228F5D90320AAE70020A8E7000C0244D9
:103A4000F8B50446036813F0807F08D09B4AD2F88B
:103A5000E83023F04043816D0B43C2F8E83023681F
:103A600013F0010F21D0E36D052B3ED8DFE803F002
:103A700011030B11111104F10800FFF705FF0546B2
:103A800045B12E4613E004F13000FFF76BFF054609
:103A9000F6E70025894AD2F8D83023F00703E16D14
:103AA0000B43C2F8D830002601E0002635462368D3
:103AB00013F0020F36D0236E282B31D8DFE803F045
:103AC0001D30303030303030183030303030303021
:103AD0002A303030303030301D30303030303030FF
:103AE0001D303030303030301D0001263546DEE7E5
:103AF00004F10800FFF7C8FE0546002D40F0D8800D
:103B00006E4AD2F8D83023F03803216E0B43C2F846
:103B1000D83007E004F13000FFF724FF0546ECE75A
:103B200001263546236813F0040F1AD0636E802BEC
:103B300000F0D48000F2C4803BB1402B40F0BA804A
:103B400004F10800FFF7A0FE0546002D40F0CC80F0
:103B50005A4AD2F8D83023F4E073616E0B43C2F8AE
:103B6000D830236813F0080F1CD0A36EB3F5806F14
:103B700000F0CE8000F2BD8043B1B3F5007F40F08D
:103B8000B58004F10800FFF77FFE0546002D40F0E8
:103B9000C5804A4AD2F8D83023F46063A16E0B4343
:103BA000C2F8D830236813F0100F1CD0E36EB3F5C1
:103BB000005F00F0C78000F2B68043B1B3F5805FCC
:103BC00040F0AE8004F10800FFF75EFE0546002DD0
:103BD00040F0BE80394AD2F8D83023F4E043E16E99
:103BE0000B43C2F8D830236813F0200F1CD0236F8A
:103BF000B3F5803F00F0C08000F2AF8043B1B3F571
:103C0000004F40F0A78004F10800FFF73DFE054695
:103C1000002D40F0B780294AD2F8D83023F4603321
:103C2000216F0B43C2F8D830236813F0400F1CD02B
:103C3000636FB3F5002F00F0B98000F2A88043B1A4
:103C4000B3F5802F40F0A08004F10800FFF71CFEC0
:103C50000546002D40F0B080184AD2F8D83023F441
:103C6000E013616F0B43C2F8D830236813F0800F64
:103C700000F0BD80A36FB3F5800F00F0B18000F2BB
:103C8000A08043B1B3F5001F40F0988004F1080014
:103C9000FFF7FAFD0546002D40F0A880074AD2F84C
:103CA000D83023F46003A16F0B43C2F8D8309EE0F4
:103CB0002E4637E70126354653E700BF000C024485
:103CC000B3F5807F3FF441AFB3F5A07F3FF43DAF44
:103CD000C02B3FF43AAF0126354642E704F13000ED
:103CE000FFF740FE054630E72E463AE70126354607
:103CF00058E7B3F5006F3FF449AFB3F5206F3FF4D9
:103D000045AFB3F5C06F3FF441AF0126354649E7F3
:103D100004F13000FFF726FE054637E72E4641E75F
:103D2000012635465FE7B3F5804F3FF450AFB3F55A
:103D3000A04F3FF44CAFB3F5405F3FF448AF0126CE
:103D4000354650E704F13000FFF70CFE05463EE72C
:103D50002E4648E70126354666E7B3F5003F3FF4B7
:103D600057AFB3F5203F3FF453AFB3F5C03F3FF437
:103D70004FAF0126354657E704F13000FFF7F2FD5B
:103D8000054645E72E464FE7012635466DE7B3F574
:103D9000801F3FF45EAFB3F5A01F3FF45AAFB3F5F9
:103DA000402F3FF456AF012635465EE704F1300060
:103DB000FFF7D8FD05464CE72E4656E70126354667
:103DC00015E0B3F5000F3FF466AFB3F5200F3FF4F5
:103DD00062AFB3F5C00F3FF45EAF0126354606E093
:103DE00004F13000FFF7BEFD054654E72E46236878
:103DF00013F4807F2ED0E36FB3F1007F23D016D869
:103E00003BB1B3F1807F0FD104F10800FFF73CFD17
:103E10000546F5B9A64AD2F8D83023F0E063E16F41
:103E20000B43C2F8D83015E00126354612E0B3F155
:103E3000806FEED0B3F1A06FEBD0B3F1407FE8D04C
:103E40000126354606E004F13000FFF78BFD0546FC
:103E5000DFE72E46236813F4007F30D0D4F880309B
:103E6000B3F1805F24D017D83BB1B3F1006F10D10C
:103E700004F10800FFF708FD0546FDB98C4AD2F8A9
:103E8000D83023F06053D4F880100B43C2F8D830F8
:103E900015E00126354612E0B3F1005FEDD0B3F135
:103EA000205FEAD0B3F1C05FE7D00126354606E0D7
:103EB00004F13000FFF756FD0546DEE72E46236885
:103EC00013F4806F19D0D4F88430052B6AD8DFE85A
:103ED00003F008036308080804F10800FFF7D4FCA6
:103EE0000546002D61D1724AD2F8DC3023F0070379
:103EF000D4F884100B43C2F8DC30236813F4006F4D
:103F000018D0D4F88830202B5DD053D833B1102B83
:103F10004DD104F10800FFF7B7FC0546002D58D13C
:103F2000634AD2F8DC3023F07003D4F888100B43D6
:103F3000C2F8DC30236813F4805F1AD0D4F88C30D8
:103F4000B3F1007F56D049D83BB1B3F1807F42D165
:103F500004F10800FFF798FC0546002D50D1544AA3
:103F6000D2F8E03023F0E063D4F88C100B43C2F8B1
:103F7000E030236813F4005F5AD0D4F89030B3F5E2
:103F8000803F43D03ED9B3F5003F44D0B3F5403F26
:103F900041D0012635464BE004F13000FFF7E2FC4A
:103FA00005469EE701263546A7E72E46A5E70126EA
:103FB0003546BFE7402BB1D0502BAFD0302BADD022
:103FC00001263546B6E704F13000FFF7CBFC054685
:103FD000A4E72E46AEE701263546CAE7B3F1806F67
:103FE000BBD0B3F1A06FB8D0B3F1407FB5D00126FC
:103FF0003546BEE704F13000FFF7B4FC0546ACE7F8
:104000002E46B6E73BB10126354611E004F13000FB
:10401000FFF7A8FC054655B9254AD2F8E43023F449
:104020004033D4F890100B43C2F8E43000E02E4641
:10403000236813F4804F22D0D4F89430B3F5802F46
:104040000DD008D9B3F5002F0ED0B3F5402F0BD00B
:104050000126354613E03BB1012635460FE004F159
:104060003000FFF77FFC0546E5B9114AD2F8E4308D
:1040700023F44023D4F894100B43C2F8E4302368AF
:1040800013F4004F26D0D4F89830B3F5801F11D028
:104090000AD9B3F5001F12D0B3F5401F0FD0012687
:1040A000354617E02E46EAE74BB10126354611E0CA
:1040B000000C024404F13000FFF754FC0546E5B95A
:1040C000B64AD2F8E43023F44013D4F898100B43E6
:1040D000C2F8E430636813F4806F24D0D4F89C30C5
:1040E000B3F5800F0FD00AD9B3F5000F10D0B3F598
:1040F000400F0DD00126354615E02E46EAE73BB1CC
:10410000012635460FE004F13000FFF72BFC054691
:10411000CDB9A24AD2F8E43023F44003D4F89C107D
:104120000B43C2F8E430236813F4803F1FD0D4F867
:10413000A030B3F1807F08D0B3F1007F0AD04BB13B
:104140000126354613E02E46EDE704F13000FFF777
:1041500009FC054655B9914AD2F8E43023F0407382
:10416000D4F8A0100B43C2F8E43000E02E46636898
:1041700013F4006F09D0894BDA6922F40042DA6146
:10418000DA69D4F804110A43DA61236813F4003FB2
:104190001ED0D4F8A430B3F5007F00F0F48000F214
:1041A000E38043B1B3F5807F40F0DB8004F1080089
:1041B000FFF76AFB0546002D40F0EB80774AD2F806
:1041C000DC3023F4E063D4F8A4100B43C2F8DC30F5
:1041D000236813F4802F1ED0D4F8A830B3F5005F05
:1041E00000F0ED8000F2DC8043B1B3F5805F40F079
:1041F000D28004F10800FFF747FB0546002D40F090
:10420000E480664AD2F8DC3023F4E043D4F8A81006
:104210000B43C2F8DC30636813F0200F1ED0D4F8D3
:10422000AC30B3F5003F00F0E48000F2D38043B13E
:10423000B3F5803F40F0CB8004F10800FFF724FB8A
:104240000546002D40F0DB80544AD2F8DC3023F4E0
:10425000E023D4F8AC100B43C2F8DC30636813F0F1
:10426000400F1ED0D4F8B030B3F5001F00F0DB8053
:1042700000F2CA8043B1B3F5801F40F0C28004F160
:104280000800FFF701FB0546002D40F0D280434AAD
:10429000D2F8DC3023F4E003D4F8B0100B43C2F8BA
:1042A000DC30636813F0800F1ED0D4F8B430B3F163
:1042B000007F00F0D28000F2C18043B1B3F1807F73
:1042C00040F0B98004F10800FFF7DEFA0546002D42
:1042D00040F0C980314AD2F8DC3023F0E063D4F8F2
:1042E000B4100B43C2F8DC30636813F4807F1ED037
:1042F000D4F8B830B3F1005F00F0C98000F2B880A4
:1043000043B1B3F1805F40F0B08004F10800FFF7E3
:10431000BBFA0546002D40F0C080204AD2F8DC30C0
:1043200023F0E043D4F8B8100B43C2F8DC30236824
:1043300013F4002F00F0D580D4F8C030B3F5003F5F
:1043400000F0BF8000F2AE80002B00F0B480B3F527
:10435000803F40F0A48004F10800FFF795FA05467D
:10436000B4E00126354633E7B3F5806F3FF423AF61
:10437000B3F5A06F3FF41FAFB3F5407F3FF41BAF21
:104380000126354624E704F13000FFF7EBFA054635
:1043900011E72E461CE7012635463CE7000C024497
:1043A000B3F5804F3FF42AAFB3F5A04F3FF426AFEB
:1043B000B3F5405F3FF422AF012635462BE704F109
:1043C0003000FFF7CFFA054618E72E4623E701260F
:1043D000354643E7B3F5802F3FF433AFB3F5A02F55
:1043E0003FF42FAFB3F5403F3FF42BAF01263546E6
:1043F00034E704F13000FFF7B5FA054621E72E4611
:104400002CE7012635464CE7B3F5800F3FF43CAF6F
:10441000B3F5A00F3FF438AFB3F5401F3FF434AF0E
:10442000012635463DE704F13000FFF79BFA0546CB
:104430002AE72E4635E70126354655E7B3F1806F6A
:104440003FF445AFB3F1A06F3FF441AFB3F1407F0C
:104450003FF43DAF0126354646E704F13000FFF753
:1044600081FA054633E72E463EE7012635465EE7EC
:10447000B3F1804F3FF44EAFB3F1A04F3FF44AAFDA
:10448000B3F1405F3FF446AF012635464FE704F1F4
:104490003000FFF767FA05463CE72E4647E701265E
:1044A00035461EE0B3F5403F10D0B3F5802F0DD058
:1044B0000126354615E0AA4A936A43F40033936215
:1044C00004E004F13000FFF74DFA0546EDB9A44AC7
:1044D000D2F8E83023F4E023D4F8C0100B43C2F83C
:1044E000E830236813F4801F33D0D4F8C430B3F518
:1044F000801F1ED00ED8B3B1B3F5002F07D104F141
:104500000800FFF7C1F9054618E02E46E9E7012645
:1045100035461EE0B3F5C01F10D0B3F5001F0DD017
:104520000126354615E08E4A936A43F400339362C0
:1045300004E004F13000FFF715FA0546C5B9884AD2
:10454000D2F8E83023F46013D4F8C4100B43C2F857
:10455000E830236813F4001F23D0D4F8D430022BA2
:104560000DD007D9033B022B0ED90126354618E0A2
:104570002E46EEE7012B07D90126354611E004F15E
:104580000800FFF781F9054655B9754AD2F8E830B9
:1045900023F00703D4F8D4100B43C2F8E83000E04E
:1045A0002E46636813F4007F06D0D4F8D830E3B108
:1045B000082B1AD001263546236813F0007F20D13E
:1045C000236813F0806F00F0A780D4F8C830102B58
:1045D00000F0908040F28A80202B00F09080302BF9
:1045E00000F08D800126354696E045B95C49D1F84A
:1045F000E82022F008021343C1F8E830DCE72E4639
:10460000DAE7584A536A43F001035362FEF76CFB42
:104610000746544B5B6A13F0010F05D1FEF764FBAC
:10462000C01B0228F5D90325002D5BD14C4BD3F8D4
:10463000F03013F4407319D0D4F8F8209A4212D015
:10464000474AD2F8F03023F44073D2F8F01041F426
:104650008031C2F8F010D2F8F01021F48031C2F8A5
:10466000F010C2F8F03013F0010F1ED1002D3BD135
:10467000D4F8F83003F44072B2F5407F27D0384ABE
:10468000D36923F47C53D361354BD3F8F02022F463
:104690004072C3F8F020D3F8F020D4F8F810C1F33A
:1046A0000B010A43C3F8F0208AE7FEF71DFB07461B
:1046B0002B4BD3F8F03013F0020FD7D1FEF714FBD9
:1046C000C01B41F288339842F2D90325CEE7244932
:1046D000CA6922F47C52C3F3171323F03003134347
:1046E000CB61D1E72E466BE72E4669E73BB1012649
:1046F000354611E01A4A936A43F40033936255B980
:10470000174AD2F8E83023F03003D4F8C8100B432E
:10471000C2F8E83000E02E46236813F4800F06D07C
:10472000D4F8CC3003B3402B2FD001263546236874
:1047300013F4000F06D0D4F8D03073B3802B3DD0E3
:1047400001263546236813F0006F4FD0D4F8E030CF
:10475000042B72D8DFE803F03A656B3F3F0000BFDF
:10476000000C024400080244974A936A43F4003361
:10477000936285B9944AD2F8E43023F04003D4F828
:10478000CC100B43C2F8E430D1E704F10800FFF786
:104790007BF80546EDE72E46C9E78B4A936A43F45A
:1047A0000033936285B9884AD2F8E43023F080035D
:1047B000D4F8D0100B43C2F8E430C3E704F108008A
:1047C000FFF762F80546EDE72E46BBE77E4A936A9F
:1047D00043F4003393629DBB7B4AD2F8E03023F070
:1047E0000703D4F8E0100B43C2F8E030236813F05D
:1047F000805F46D0D4F8E430202B40D8DFE803F0C7
:10480000223F3F3F3F3F3F3F333F3F3F3F3F3F3FE1
:10481000393F3F3F3F3F3F3F273F3F3F3F3F3F3FC6
:10482000270004F10800FFF72FF80546D3E704F14D
:104830003000FFF797F80546CDE701263546D5E766
:104840002E46D3E7604A936A43F40033936255BB24
:104850005D4AD2F8E03023F03803D4F8E4100B437B
:10486000C2F8E0300DE004F10800FFF70DF805464E
:10487000EDE704F13000FFF775F80546E7E701269C
:104880003546236813F0005F32D0D4F8E830802B2F
:104890001CD00DD8A3B1402B07D104F10800FEF7BE
:1048A000F3FF054617E02E46EBE7012635461FE0ED
:1048B000C02B10D0B3F5807F0DD00126354617E010
:1048C000414A936A43F40033936204E004F13000F8
:1048D000FFF748F8054655B93B4AD2F8E03023F4D3
:1048E000E073D4F8E8100B43C2F8E03000E02E4645
:1048F000236813F0804F1AD0D4F8EC30B3F5806FF2
:1049000070D063D83BB1B3F5007F59D104F10800F2
:10491000FEF7BAFF0546002D6AD12B4AD2F8E030E7
:1049200023F46063D4F8EC100B43C2F8E030236842
:10493000002B1ADAD4F8F030B3F5005F69D05CD8F8
:104940003BB1B3F5805F55D104F10800FEF79CFF41
:104950000546002D63D11C4AD2F8E03023F4E04331
:10496000D4F8F0100B43C2F8E030636813F0010F85
:104970001AD0D4F8F430B3F5803F61D054D83BB1AD
:10498000B3F5004F4DD104F10800FEF77DFF054659
:10499000002D5BD10C4AD2F8E03023F46033D4F818
:1049A000F4100B43C2F8E030636813F0020F5FD0DD
:1049B000D4F8DC30032B71D8DFE803F04F4A6A4F9C
:1049C00001263546B3E700BF000C0244B3F5006F83
:1049D000A1D0B3F5206F9ED0B3F5C06F9BD0012658
:1049E0003546A4E704F13000FEF7BCFF054692E728
:1049F0002E469CE701263546B7E7B3F5804FA8D091
:104A0000B3F5A04FA5D0B3F5405FA2D0012635463F
:104A1000ABE704F13000FEF7A5FF054699E72E4607
:104A2000A3E701263546BFE7B3F5003FB0D0B3F5A5
:104A3000203FADD0B3F5C03FAAD001263546B3E73D
:104A400004F13000FEF78EFF0546A1E72E46ABE7E6
:104A50003C4A936A43F40033936215BB394AD2F857
:104A6000E43023F00303D4F8DC100B43C2F8E43045
:104A7000636813F0040F26D0D4F8BC30B3F5807F00
:104A800011D0B3F5007F3BD093B1012635461AE033
:104A900004F10800FEF7F8FE0546DEE7012635467C
:104AA000E6E72E46E4E7274A936A43F4003393622D
:104AB00065BB244AD2F8E83023F44073D4F8BC1024
:104AC0000B43C2F8E830636813F0100F29D0D4F814
:104AD0000031202B1CD0302B06D0102B1ED1194AB0
:104AE000936A43F400339362D5B9164AD2F8E4309E
:104AF00023F03003D4F800110B43C2F8E43010E087
:104B000004F10800FEF7C0FE0546D1E72E46DAE7BD
:104B100004F13000FEF726FF0546E5E7012600E038
:104B20002E46636813F0080F09D0064AD2F8E83021
:104B300023F0C003D4F8FC100B43C2F8E830304631
:104B4000F8BD00BF000C024430B580494A6BC2F387
:104B500008028B6A03F0030C8C6AC4F305258B6A88
:104B6000C3F3001E8B6BC3F3CC030EFB03F314F4EF
:104B70007C5F00F0E68007EE903AF8EE677ABCF1D1
:104B8000020F41D0BCF1030F57D0BCF1010F6DD122
:104B90000968C1F3C1016E4BCB4007EE103AB8EE85
:104BA000476A07EE105AB8EE477AC6EE076A07EE74
:104BB000102AB8EE477A9FED676A67EE867A77EE3D
:104BC000277AB7EE007A77EE877A66EEA77A5F4BA0
:104BD0001B6813F0007F6DD05C4B9B6A13F4803F21
:104BE00065D05A4B5B6BC3F3462307EE103AB8EE21
:104BF000477AF7EE006A37EE267AC7EE876AFCEE50
:104C0000E66AC0ED006A57E007EE105AB8EE477A40
:104C10009FED516AC6EE076A07EE102AB8EE477A92
:104C20009FED4C6A67EE867A77EE277AB7EE007AC8
:104C300077EE877A66EEA77AC9E707EE105AB8EEE4
:104C4000477A9FED466AC6EE076A07EE102AB8EE6D
:104C5000477A9FED406A67EE867A77EE277AB7EE5D
:104C6000007A77EE877A66EEA77AB0E7374B196855
:104C7000C1F3C101364BCB4007EE103AB8EE476A9C
:104C800007EE105AB8EE477AC6EE076A07EE102A0A
:104C9000B8EE477A9FED2F6A67EE867A77EE277A2D
:104CA000B7EE007A77EE877A66EEA77A8FE7002371
:104CB000036001E000230360244B1B6813F0007FB6
:104CC0001AD0224B9B6A13F4003F12D01F4B5B6B30
:104CD000C3F3064307EE103AB8EE477AF7EE006AE0
:104CE00037EE267AC7EE876AFCEEE66AC0ED016A07
:104CF00004E00023436001E000234360134B1B6882
:104D000013F0007F1AD0114B9B6A13F4802F12D03E
:104D10000E4B5B6BC3F3066307EE103AB8EE477AAF
:104D2000F7EE006A37EE267AC7EE876AFCEEE66A8F
:104D3000C0ED026A09E00023836006E0002383607F
:104D400003E0002303604360836030BD000C024435
:104D50000090D003000000390024744A20BCBE4BF0
:104D600030B58049CA6BC2F30802CB6A03F0030C6A
:104D7000CC6AC4F30525CB6AC3F3001E0B6CC3F3E6
:104D8000CC030EFB03F314F47C5F00F0E68007EE27
:104D9000903AF8EE677ABCF1020F41D0BCF1030FF4
:104DA00057D0BCF1010F6DD10968C1F3C1016E4B41
:104DB000CB4007EE103AB8EE476A07EE105AB8EE4D
:104DC000477AC6EE076A07EE102AB8EE477A9FEDDB
:104DD000676A67EE867A77EE277AB7EE007A77EE23
:104DE000877A66EEA77A5F4B1B6813F0006F6DD071
:104DF0005C4BDB6A13F4803F65D05A4BDB6BC3F32B
:104E0000462307EE103AB8EE477AF7EE006A37EE1F
:104E1000267AC7EE876AFCEEE66AC0ED006A57E0C4
:104E200007EE105AB8EE477A9FED516AC6EE076A50
:104E300007EE102AB8EE477A9FED4C6A67EE867A45
:104E400077EE277AB7EE007A77EE877A66EEA77A62
:104E5000C9E707EE105AB8EE477A9FED466AC6EEEC
:104E6000076A07EE102AB8EE477A9FED406A67EEB0
:104E7000867A77EE277AB7EE007A77EE877A66EE53
:104E8000A77AB0E7374B1968C1F3C101364BCB4065
:104E900007EE103AB8EE476A07EE105AB8EE477AB6
:104EA000C6EE076A07EE102AB8EE477A9FED2F6A22
:104EB00067EE867A77EE277AB7EE007A77EE877A12
:104EC00066EEA77A8FE70023036001E0002303600A
:104ED000244B1B6813F0006F1AD0224BDB6A13F4CB
:104EE000003F12D01F4BDB6BC3F3064307EE103AB3
:104EF000B8EE477AF7EE006A37EE267AC7EE876A91
:104F0000FCEEE66AC0ED016A04E00023436001E0C4
:104F100000234360134B1B6813F0006F1AD0114B32
:104F2000DB6A13F4802F12D00E4BDB6BC3F30663E6
:104F300007EE103AB8EE477AF7EE006A37EE267AB7
:104F4000C7EE876AFCEEE66AC0ED026A09E000235C
:104F5000836006E00023836003E000230360436076
:104F6000836030BD000C02440090D0030000003983
:104F70000024744A20BCBE4B30B580494A6CC2F351
:104F800008020B6B03F0030C0C6BC4F305250B6BD1
:104F9000C3F3001E8B6CC3F3CC030EFB03F314F4BA
:104FA0007C5F00F0E68007EE903AF8EE677ABCF19D
:104FB000020F41D0BCF1030F57D0BCF1010F6DD1EE
:104FC0000968C1F3C1016E4BCB4007EE103AB8EE51
:104FD000476A07EE105AB8EE477AC6EE076A07EE40
:104FE000102AB8EE477A9FED676A67EE867A77EE09
:104FF000277AB7EE007A77EE877A66EEA77A5F4B6C
:105000001B6813F0005F6DD05C4B1B6B13F4803F8B
:1050100065D05A4B5B6CC3F3462307EE103AB8EEEB
:10502000477AF7EE006A37EE267AC7EE876AFCEE1B
:10503000E66AC0ED006A57E007EE105AB8EE477A0C
:105040009FED516AC6EE076A07EE102AB8EE477A5E
:105050009FED4C6A67EE867A77EE277AB7EE007A94
:1050600077EE877A66EEA77AC9E707EE105AB8EEB0
:10507000477A9FED466AC6EE076A07EE102AB8EE39
:10508000477A9FED406A67EE867A77EE277AB7EE29
:10509000007A77EE877A66EEA77AB0E7374B196821
:1050A000C1F3C101364BCB4007EE103AB8EE476A68
:1050B00007EE105AB8EE477AC6EE076A07EE102AD6
:1050C000B8EE477A9FED2F6A67EE867A77EE277AF9
:1050D000B7EE007A77EE877A66EEA77A8FE700233D
:1050E000036001E000230360244B1B6813F0005FA2
:1050F0001AD0224B1B6B13F4003F12D01F4B5B6C7A
:10510000C3F3064307EE103AB8EE477AF7EE006AAB
:1051100037EE267AC7EE876AFCEEE66AC0ED016AD2
:1051200004E00023436001E000234360134B1B684D
:1051300013F0005F1AD0114B1B6B13F4802F12D0A9
:105140000E4B5B6CC3F3066307EE103AB8EE477A7A
:10515000F7EE006A37EE267AC7EE876AFCEEE66A5B
:10516000C0ED026A09E00023836006E0002383604B
:1051700003E0002303604360836030BD000C024401
:105180000090D003000000390024744A20BCBE4BBC
:1051900000F17E430B432CD000B58BB0A0F58013FB
:1051A0000B4300F0CC83B04B984271F1000380F0C8
:1051B000FC81A0F580630B4300F0B58640F201430B
:1051C000984271F1000380F01681212871F10003EB
:1051D00080F0868050EA010301F0DB84013841F160
:1051E000FF31202871F1000134D300200BB05DF8AD
:1051F00004FB9E4AD2F8F03003F44073D2F8F0205A
:1052000012F0020F03D0B3F5807F01F0BA84974A01
:10521000D2F8F02012F0006F03D0B3F5007F01F058
:10522000B384924A106810F4003001F02C86B3F574
:10523000407F01D000207047D36903F47C53B3F55D
:10524000007FC1F0A484D369C3F305238848B0FB71
:10525000F3F070471F28C8D801A353F820F000BF0F
:10526000075A0008A15A0008EB510008275B000804
:10527000EB510008EB510008EB510008BB5B000844
:10528000EB510008EB510008EB510008EB5100080E
:10529000EB510008EB510008EB510008555C000889
:1052A000EB510008EB510008EB510008EB510008EE
:1052B000EB510008EB510008EB510008EB510008DE
:1052C000EB510008EB510008EB510008EB510008CE
:1052D000EB510008EB510008EB510008F95C0008A5
:1052E000A0F580730B4300F0B98540F2011398429A
:1052F00071F1000341D2A0F140030B4300F0498556
:105300008038084337D1594BD3F8D83013F46003B1
:1053100000F08C85554A126812F0006F03D0B3F587
:10532000001F00F08785514A126812F0005F03D019
:10533000B3F5800F00F084854C4A126812F0020F1A
:1053400003D0B3F5C00F00F08185484A126812F40B
:10535000007F03D0B3F5000F01F07C84434AD2F8FC
:10536000F02012F0020F01F07884B3F5200F01F065
:10537000778400203AE7002038E7A0F50070084362
:1053800037D13A4BD3F8D83013F0605300F0B385DF
:10539000364A126812F0006F03D0B3F1006F00F0CC
:1053A000AE85324A126812F0005F03D0B3F1805F1D
:1053B00000F0AB852D4A126812F0020F03D0B3F152
:1053C000C05F00F0A885294A126812F4007F03D05C
:1053D000B3F1005F01F05284244AD2F8F02012F0B9
:1053E000020F01F04E84B3F1205F01F04D840020E4
:1053F000FCE60020FAE6A0F500430B4300F0D78658
:1054000048F20103984271F1000335D3A0F58023DF
:105410000B4300F08E87174B984271F1000380F028
:105420009780A0F580330B4300F00387A0F5003090
:10543000084340F08B800D4BD3F8DC3003F4E0637D
:10544000B3F5407F00F0498700F22087B3F5807FF5
:1054500000F03787B3F5007F00F03987002B40F06C
:105460000E87FEF7FFF9C1E601001000000C0244B0
:1054700040787D0101000400A0F500530B4300F0CB
:10548000548642F20103984271F1000338D2A0F52C
:1054900000630B4300F09485A0F5805008432DD1A4
:1054A000B04BD3F8E03013F0E06300F0D185B3F1F6
:1054B000807F00F0D185B3F1007F00F0D385A94A49
:1054C000126812F0020F03D0B3F1407F00F0D085D4
:1054D000A44A126812F4007F03D0B3F1806F01F088
:1054E000EB83A04AD2F8F02012F0020F01F0E7831C
:1054F000B3F1A06F01F0E683002077E6002075E6A7
:10550000A0F5804008431FD1964BD3F8E43013F444
:10551000402300F03A86B3F5802F00F03A86914A96
:10552000126812F0020F03D0B3F5002F00F0378697
:105530008C4A126812F4007F01F0E283B3F5402F29
:1055400001F0E183002051E600204FE600204DE607
:10555000A0F50020084326D1824BD3F8E83003F4AD
:10556000E023B3F5003F00F0D08140F2BC81B3F5F9
:10557000403F01F01183B3F5802F40F0BF81794A9D
:10558000D2F8E83003F04043126812F0020F00F046
:10559000C181002B40F0BE81724B1B68C3F3C10375
:1055A0007148D84022E6002020E6022908BF0028E2
:1055B00001F04782002383424FF002038B41C0F089
:1055C000D98000F170430B4301F00681674B98428C
:1055D00071F100033AD2A0F500030B4300F0018201
:1055E000634B984271F1000316D2A0F500130B43F0
:1055F00000F04685A0F5800008430BD1594BD3F845
:10560000E43013F0400F40F0E78107A8FFF79CFA61
:105610000898EBE50020E9E500F17C430B4301F03D
:105620005B8200F1784008430ED14E4BD3F8E03056
:1056300003F00703042B01F2AE83DFE813F08D08BB
:10564000930899088A089F080020CFE5002908BF21
:10565000B0F1004F01F091814FF0004383424FF0D1
:1056600000038B4141D300F160430B4301F01C81E7
:1056700000F14040084336D13A4BD3F8E03013F400
:10568000606301F06281374A126812F0006F03D044
:10569000B3F5007F01F05D81324A126812F0005FBD
:1056A00003D0B3F5806F01F05A812E4A126812F0D0
:1056B000020F03D0B3F5C06F01F05781294A126879
:1056C00012F4007F03D0B3F5006F01F09283254AF6
:1056D000126812F4003F01F08F83B3F5206F01F0E0
:1056E0008E83002082E5002080E5012908BF002884
:1056F00036D11C4BD3F8E03013F4603301F08981CC
:10570000184A126812F0006F03D0B3F5004F01F091
:105710008481144A126812F0005F03D0B3F5803F11
:1057200001F081810F4A126812F0020F03D0B3F525
:10573000C03F01F07E810B4A126812F4007F03D053
:10574000B3F5003F01F06783064A126812F4003F88
:1057500001F06483B3F5203F01F06383002045E549
:10576000002043E5000C02440090D003010000102B
:1057700001008000402908BF002800F09A8600231D
:1057800083424FF040038B412ED2B1F5007F08BF1A
:10579000002800F0B084002383424FF400738B4153
:1057A0007AD3802908BF002800F0F286B1F5807F07
:1057B00008BF00286ED1AC4BD3F8DC3003F0E043D7
:1057C000B3F1405F00F0788700F24F87B3F1805F5C
:1057D00000F06687B3F1005F00F06887002B40F0AF
:1057E0004187FEF73FF801E5102908BF002801F0C6
:1057F000A281002383424FF010038B412BD3042955
:1058000008BF002800F08487082908BF002820D19D
:10581000954AD2F8E83003F0C003D2F8F02012F035
:10582000020F02D0002B01F00B838F4AD2F8F02038
:1058300012F0006F02D0402B01F006838A4A1268F2
:1058400012F4007F01F00483802B01F00483002018
:10585000CCE40020CAE4202908BF002818D1824BDC
:10586000D3F8DC3003F4E023B3F5403F00F0F585D6
:1058700000F2CC85B3F5803F00F0E385B3F5003F3F
:1058800000F0E585002B40F0BE85FDF7EBFFADE4B1
:105890000020ABE40020A9E4B1F5806F08BF002828
:1058A0001FD1714BD3F8E43013F4400300F0AF8400
:1058B000B3F5800F00F0AF846B4A126812F0020F4C
:1058C00003D0B3F5000F00F0AC84674A126812F4FD
:1058D000007F01F02182B3F5400F01F0208200200B
:1058E00084E4002082E45BB1B3F5803F04D104A8D6
:1058F000FFF736FA049879E4002077E4002075E495
:1059000007A8FFF721F9089870E401A8FFF734FB16
:1059100001986BE4544A126812F4007F03D0B3F18B
:10592000804F01F03C81504A126812F4003F01F0B0
:105930003981B3F1004F01F03881002056E44A4B21
:10594000D3F8E83003F46013B3F5801F2AD00AD8E7
:105950001BB3B3F5002F04D104A8FFF701FA049894
:1059600044E4002042E4B3F5C01F01F02181B3F507
:10597000001F10D13C4AD2F8E83003F040431268CF
:1059800012F0020F13D093B9374B1B68C3F3C10356
:105990003648D8402AE4002028E407A8FFF7D4F8C6
:1059A000089823E401A8FFF7E7FA01981EE42E4ABD
:1059B000126812F4007F03D0B3F1804F01F0FB8036
:1059C000294A126812F4003F01F0F880B3F1004F49
:1059D00001F0F780002009E404A8FFF7C1F9069858
:1059E00004E4214BD3F8E43013F0800F05D107A86D
:1059F000FFF7AAF80898FFF7F9BB04A8FFF7B0F97A
:105A00000698FFF7F3BB184BD3F8D83013F0070311
:105A10002ED0154A126812F0006F01D0012B2BD046
:105A2000114A126812F0005F01D0022B2AD00E4AF0
:105A3000126812F0020F01D0032B29D00A4A126813
:105A400012F4007F02D0042B01F0BE80064AD2F887
:105A5000F02012F0020F01F0BA80052B01F0BA809D
:105A60000020FFF7C3BB00BF000C02440090D0032E
:105A7000FDF7E6FEFFF7BABB04A8FFF771F905983A
:105A8000FFF7B4BB01A8FFF777FA0298FFF7AEBBA8
:105A9000974B1B68C3F3C1039648D840FFF7A6BBDA
:105AA000934BD3F8D83013F0380324D0904A1268BF
:105AB00012F0006F01D0082B21D0102B25D08C4A7A
:105AC000126812F0020F01D0182B24D0884A1268F5
:105AD00012F4007F02D0202B01F08080844AD2F89B
